{
  "contractName": "Vote",
  "abi": [
    {
      "constant": false,
      "inputs": [
        {
          "name": "name",
          "type": "bytes32"
        },
        {
          "name": "party",
          "type": "bytes32"
        }
      ],
      "name": "addCandidate",
      "outputs": [],
      "payable": false,
      "stateMutability": "nonpayable",
      "type": "function"
    },
    {
      "constant": false,
      "inputs": [
        {
          "name": "uid",
          "type": "bytes32"
        },
        {
          "name": "candidateId",
          "type": "uint256"
        }
      ],
      "name": "userVote",
      "outputs": [],
      "payable": false,
      "stateMutability": "nonpayable",
      "type": "function"
    },
    {
      "constant": true,
      "inputs": [
        {
          "name": "candidateId",
          "type": "uint256"
        }
      ],
      "name": "candidateNumOfVotes",
      "outputs": [
        {
          "name": "",
          "type": "uint256"
        }
      ],
      "payable": false,
      "stateMutability": "view",
      "type": "function"
    },
    {
      "constant": true,
      "inputs": [],
      "name": "getNumOfVoters",
      "outputs": [
        {
          "name": "",
          "type": "uint256"
        }
      ],
      "payable": false,
      "stateMutability": "view",
      "type": "function"
    },
    {
      "constant": true,
      "inputs": [],
      "name": "getNumOfCandidates",
      "outputs": [
        {
          "name": "",
          "type": "uint256"
        }
      ],
      "payable": false,
      "stateMutability": "view",
      "type": "function"
    },
    {
      "constant": true,
      "inputs": [
        {
          "name": "candidateId",
          "type": "uint256"
        }
      ],
      "name": "getCandidate",
      "outputs": [
        {
          "name": "",
          "type": "uint256"
        },
        {
          "name": "",
          "type": "bytes32"
        },
        {
          "name": "",
          "type": "bytes32"
        }
      ],
      "payable": false,
      "stateMutability": "view",
      "type": "function"
    },
    {
      "constant": true,
      "inputs": [],
      "name": "getLeader",
      "outputs": [
        {
          "name": "",
          "type": "uint256"
        },
        {
          "name": "",
          "type": "uint256"
        }
      ],
      "payable": false,
      "stateMutability": "view",
      "type": "function"
    },
    {
      "constant": false,
      "inputs": [],
      "name": "init",
      "outputs": [],
      "payable": false,
      "stateMutability": "nonpayable",
      "type": "function"
    }
  ],
  "bytecode": "0x608060405260008055600060015534801561001957600080fd5b50610523806100296000396000f30060806040526004361061008e576000357c0100000000000000000000000000000000000000000000000000000000900463ffffffff16806335b8e820146100935780634c051f14146100f257806365fc783c14610124578063789824341461014f578063898104c914610190578063a1adbb25146101cb578063e1c7392a1461020a578063e8685ba114610221575b600080fd5b34801561009f57600080fd5b506100be6004803603810190808035906020019092919050505061024c565b6040518084815260200183600019166000191681526020018260001916600019168152602001935050505060405180910390f35b3480156100fe57600080fd5b5061010761028d565b604051808381526020018281526020019250505060405180910390f35b34801561013057600080fd5b50610139610323565b6040518082815260200191505060405180910390f35b34801561015b57600080fd5b5061017a6004803603810190808035906020019092919050505061032c565b6040518082815260200191505060405180910390f35b34801561019c57600080fd5b506101c9600480360381019080803560001916906020019092919080359060200190929190505050610381565b005b3480156101d757600080fd5b50610208600480360381019080803560001916906020019092919080356000191690602001909291905050506103e6565b005b34801561021657600080fd5b5061021f610457565b005b34801561022d57600080fd5b506102366104ed565b6040518082815260200191505060405180910390f35b600080600083600260008681526020019081526020016000206000015460026000878152602001908152602001600020600101549250925092509193909250565b60008060008060008060008060009550600093505b6001548410156103135783925060009150600090505b6000548110156102f65782600360008381526020019081526020016000206001015414156102e95781806001019250505b80806001019150506102b8565b8582101515610306578195508294505b83806001019450506102a2565b8486975097505050505050509091565b60008054905090565b6000806000809150600090505b60005481101561037757836003600083815260200190815260200160002060010154141561036a5781806001019250505b8080600101915050610339565b8192505050919050565b600080549050604080519081016040528084600019168152602001838152506003600083815260200190815260200160002060008201518160000190600019169055602082015181600101559050506000808154809291906001019190505550505050565b600060015490506001600081548092919060010191905055506040805190810160405280846000191681526020018360001916815250600260008381526020019081526020016000206000820151816000019060001916905560208201518160010190600019169055905050505050565b6104a17f48696c6c61727920436c696e746f6e00000000000000000000000000000000007f44656d6f637261747300000000000000000000000000000000000000000000006103e6565b6104eb7f446f6e616c64205472756d7000000000000000000000000000000000000000007f52657075626c6963616e730000000000000000000000000000000000000000006103e6565b565b60006001549050905600a165627a7a723058207ec07bd25f8ed70f78dfa485a38c93bac1e258680348acfaf705ff97f02a68a40029",
  "source": "pragma solidity ^0.4.18;\n\ncontract Vote {\n\n    struct Candidate {\n        bytes32 name;\n        bytes32 party;\n    }\n\n    struct Voter {\n        bytes32 uid;\n        uint candidateId;\n    }\n\n    uint numOfVoters = 0;\n    uint numOfCandidates = 0;\n    mapping (uint => Candidate) candidateList;\n    mapping (uint => Voter) voterList;\n\n    function addCandidate(bytes32 name, bytes32 party) public {\n        uint candidateId = numOfCandidates;\n        numOfCandidates++;\n        candidateList[candidateId] = Candidate(name, party);\n    }\n\n    function userVote(bytes32 uid, uint candidateId) public {\n        uint voterId = numOfVoters;\n        voterList[voterId] = Voter(uid, candidateId);\n        numOfVoters++;\n    }\n\n    function candidateNumOfVotes(uint candidateId) public view returns (uint) {\n        uint candidateVotes = 0;\n        for (uint i = 0; i < numOfVoters; i++) {\n            if (voterList[i].candidateId == candidateId) {\n                candidateVotes++;\n            }\n        }\n        return candidateVotes;\n    }\n\n    function getNumOfVoters() public view returns (uint) {\n        return numOfVoters;\n    }\n\n    function getNumOfCandidates() public view returns (uint) {\n        return numOfCandidates;\n    }\n\n    function getCandidate(uint candidateId) public view returns (uint, bytes32, bytes32) {\n        return (candidateId, candidateList[candidateId].name, candidateList[candidateId].party);\n    }\n\n    function getLeader() public view returns (uint, uint) {\n        uint numOfVotes = 0;\n        uint winnerId;\n        for (uint i = 0; i < numOfCandidates; i++) {\n            uint currCandidateId = i;\n            uint currNumOfVotes = 0;\n            for (uint x = 0; x < numOfVoters; x++) {\n                if (voterList[x].candidateId == currCandidateId) {\n                    currNumOfVotes++;\n                }\n            }\n            if (currNumOfVotes >= numOfVotes) {\n                numOfVotes = currNumOfVotes;\n                winnerId = currCandidateId;\n            } \n        }\n        return (winnerId, numOfVotes);\n    }\n\n    function init() public {\n        addCandidate(\"Hillary Clinton\", \"Democrats\");\n        addCandidate(\"Donald Trump\", \"Republicans\");\n    }\n}",
  "sourcePath": "/Users/griffin/Desktop/BlockVote/blockvote/contracts/Vote.sol",
  "compiler": {
    "name": "solc",
    "version": "0.4.23+commit.124ca40d.Emscripten.clang"
  },
  "schemaVersion": "2.0.0",
  "updatedAt": "2018-04-22T16:09:27.720Z"
}